:10000000E0C0000014C1000012C1000010C10000D7
:100010000EC100000CC100000AC1000008C10000B0
:1000200006C1000004C100000C94261700C10000A6
:10003000FEC00000FCC00000FAC00000F8C00000D4
:10004000F6C00000F4C00000F2C00000F0C00000E4
:100050000AC40000ECC00000EAC0000077C600003F
:10006000E6C00000E4C00000E2C00000E0C0000004
:10007000DEC00000DCC00000DAC00000D8C0000014
:10008000D6C00000D4C00000D2C00000D0C0000024
:10009000CEC00000CCC00000CAC00000C8C0000034
:1000A000C6C00000C4C00000C2C00000FB01F401D3
:1000B000ED01E601CC01B3019D019D019D019D0172
:1000C0009D01A401E318AC181618AC1816188C186A
:1000D0006618161853183218120336003600360008
:1000E0003600360036003600410000002C034D007B
:1000F000690064006900200046006900670068002C
:1001000074006500720020003600340020002800D2
:1001100043004600570029000000280377007700BD
:1001200077002E0064006A007400650063006800B8
:1001300074006F006F006C0073002E0063006F008E
:100140006D00AE000000040309040902650002010D
:100150000080F009040000000101000009240100F2
:100160000109000101090401000201030000072444
:1001700001000141000624020101000624020202DE
:100180000009240301030102010009240302040100
:1001900001010009050102400000000005250101E0
:1001A000010905820240000000000525010103123B
:1001B0000110010000004035125100020001020050
:1001C000010011241FBECFEFDAE0DEBFCDBF04B6C1
:1001D00003FE17C08091880690918906A0918A0637
:1001E000B0918B068A3C9C4AA244BC4D51F41092BB
:1001F00088061092890610928A0610928B060C943B
:10020000003812E0A0E0B1E0E0EBF4E302C00590BA
:100210000D92A03EB107D9F726E0A0EEB2E001C0F2
:100220001D92A838B207E1F7E6D10C94561AE8CE31
:10023000ACC308958091D4039091D5030E947A199C
:10024000811101C00895A1D39FE088E10FB6F89411
:10025000A895809360000FBE9093600008950F935F
:100260001F93CF93DF938091F7029091F802A091B2
:10027000F902B091FA02D82FDD0F04E913E0C0E0D3
:1002800005C0CF5F0F5F1F4FC034B1F0F801808110
:1002900087FFF7CF880FFD2FF81BF43090F320E095
:1002A00040E060E08C2F0E94C611F8011082CF5F01
:1002B0000F5F1F4FC03451F7DF91CF911F910F9106
:1002C0000895EF92FF920F931F93CF93DF9300D087
:1002D00000D0CDB7DEB700E010E0E12CF12CBE017C
:1002E0006F5F7F4F8091D4039091D5030E94CF1907
:1002F000811117C08FEFE81AF80A88E7E816F104B1
:1003000028F4A895011582E0180749F70F900F907F
:100310000F900F90DF91CF911F910F91FF90EF9071
:1003200008950F5F1F4F8981E82FEF708E2F90E0A7
:10033000FC013497EC30F10518F0E12CF12CE2CF00
:10034000EA5AFF4F0C94081A8A818A3F09F45AC06E
:100350008C3F09F45CC0883F81F781E09DD778D756
:10036000E12CF12CCFCF8A818F70909101018913FC
:10037000E4CFEB818CEDF82EFE0E8FE38F15E8F2C3
:100380006C818F2D0E94F311EF2DF0E0EC56FC4FA5
:100390001082E12CF12CB6CF8A818F7090910101EF
:1003A0008913CBCFEB81E452E03438F68091F70229
:1003B0009091F802A091F902B091FA02F0E0EC56A7
:1003C000FC4F80688083E12CF12C9CCFCE010196FC
:1003D0000E945F0CE12CF12C95CFCE0101960E947A
:1003E000CD0CE12CF12C8ECFCE0101960E94060D92
:1003F000E12CF12C87CFCE0101960E94A60BE12CB7
:10040000F12C80CF81E048D7E12CF12C7BCF80E02C
:1004100043D7E12CF12C76CF6F927F928F929F92EF
:10042000AF92BF92CF92DF92EF92FF920F931F9302
:10043000CF93DF9380917F06843079F0DF91CF9165
:100440001F910F91FF90EF90DF90CF90BF90AF90F2
:100450009F908F907F906F90089533DF37D576D53A
:10046000E091FB02F091FC02B091FD02B090FE021F
:100470009090FF028090000370900103609002034F
:100480009F014B2F5B2D692D782D872D962DA0E098
:100490000E94361A09F0ACC0A12CEE24E394F12C92
:1004A00000E010E0D0E0C0E0C12CD12C3FC0209192
:1004B00003032E21309104033F2140910503402383
:1004C000509106035123609107036D237091080337
:1004D0007C238091090390910A038C219D21A0E047
:1004E0000E94361A09F044C09701A8016D2F7C2F95
:1004F000C60101E00E941D1A79018A01D62FC72F7B
:100500006C01A39480E4A81609F453C0E091FB02A7
:10051000F091FC02B091FD02B090FE029090FF02BB
:100520008090000370900103609002032E2F2E2113
:100530003F2F3F214B2F40235B2D5123692D6D23EE
:10054000782D7C23872D8C21962D9D21A0E00E9463
:10055000361A09F4ACCF8A2D79D6B82E809134039F
:10056000823098F04FE76B2D80910101BDD59FCF70
:100570008A2D6CD6B82E80913403823078F040E01A
:100580006B2D80910101B0D5AFCF61E08B2DCBD524
:1005900080913403882309F48ACFE4CF40E06B2DA7
:1005A000809101017AD580913403882309F49CCF8E
:1005B000E6CF8091D4039091D5030E94B419809125
:1005C000F7029091F802A091F902B091FA0280939B
:1005D000F3029093F402A093F502B093F6023FDE8B
:1005E000F3D686ED93E03AD381E08093E00226CF04
:1005F0001092360351CF84B7877F84BF0FB6F8942B
:10060000A8958091600088618093600010926000DE
:100610000FBE80E890E00FB6F8948093610090934D
:1006200061000FBE85BF85BF03D17CD1A8D12FD378
:1006300026D50E948C100E947C102FEF89EF90E04D
:10064000215080409040E1F700C000003FD47ED4AC
:1006500020911303217030E040E050E060E070E052
:1006600080E090E0A0E00E94361A19F0C1D2DCD7F9
:10067000FFCF0E9409177894809135038093360349
:10068000CBDE0E9457198091E0028823C9F3A89518
:10069000C3DE0E9457198091E002882389F3F7CFC7
:1006A000F999FECF9F7092BD81BD60BDF894FA9A12
:1006B000F99A78940895F999FECF92BD81BDF89A80
:1006C00080B508958F929F92AF92BF92CF92DF92A2
:1006D000EF92FF920F931F93CF93DF9361E080E03F
:1006E00090E0DEDF82E08093010162E082E090E052
:1006F000D7DF8FE7809300016FE783E090E0D0DFE2
:1007000061E08AE090E0CCDF1092340360E089E0A1
:1007100090E0C6DF60E085E090E0C2DF62E08CE060
:1007200090E0BEDF61EF8DE090E0BADF64E08EE044
:1007300090E0B6DF6EE18FE090E0B2DF6FE780E13E
:1007400090E0AEDF66E481E190E0AADF6CE382E155
:1007500090E0A6DF6CE083E190E0A2DF6FE784E148
:1007600090E09EDF60E085E190E09ADF60E486E162
:1007700090E096DF60E088E190E092DF8CE3809388
:1007800035036CE387E190E08BDF812C912CA12C69
:10079000B12C83E1C82E81E0D82E74018401C0E021
:1007A000D0E080E4A816B104C8F5F6016081C70165
:1007B00081599F4F75DFC7012DE030E0F901EE0F41
:1007C000FF1FE20FF31FED5EFE4FEC0FFD1F608178
:1007D00081519E4F65DF21960F5F1F4FEFEFEE1A9D
:1007E000FE0AFFEFCF1ADF0AC330D105D1F68FEF33
:1007F000A81AB80AE3E08E0E911CF0E8AF16B10417
:1008000041F6DF91CF911F910F91FF90EF90DF9014
:10081000CF90BF90AF909F908F900895F60161ADFB
:10082000C80181599F4F3CDFC80129E030E0C6CFA5
:1008300080E090E040DF813009F044DF82E090E02A
:100840003ADF8093010183E090E035DF809300017F
:1008500089E090E030DF8093340387E190E02BDF84
:100860008093350308951F920F920FB60F921124B3
:100870008F939F93EF93FF931092850010928400C3
:1008800080EE9FEF9093850080938400E7E3F3E090
:1008900080819181009719F001979183808332962E
:1008A00083E0EF33F807A1F780911F0381110CC09B
:1008B0008091E1029091E2028B34910519F1019649
:1008C0009093E2028093E10280914203909143036E
:1008D0000196909343038093420380913D0390914E
:1008E0003E03892B31F480E190E090933E038093A6
:1008F0003D03FF91EF919F918F910F900FBE0F904D
:100900001F90189581E090E09093E2028093E102BD
:10091000809140039091410301969093410380930D
:100920004003D2CF87E884B980EC87B9E4E6F0E0F1
:100930008081877F808310928000E1E8F0E08081F1
:100940008460808380818D7F808380818E7F80839F
:10095000F89480E49EEF9093850080938400EFE606
:10096000F0E0808181608083E7E3F3E01182108210
:100970001382128215821482178216820895EFE67E
:10098000F0E080818E7F80830895EFE6F0E0808143
:100990008160808308950895FC01408151816281C6
:1009A00073814093EF025093F0026093F1027093D1
:1009B000F20230E028E180E090E0A0E8B0E013C06F
:1009C00000000000000000002E98B695A7959795AE
:1009D00087952150C1F04091EF025091F002609153
:1009E000F1027091F202482359236A237B232E9A45
:1009F000452B462B472B21F72E98B695A795979513
:100A00008795215041F73F5F303281F0408151811D
:100A1000628173814093EF025093F0026093F10280
:100A20007093F20230FFC6CF3396C4CF0895FC0115
:100A300040815181628173814093EB025093EC02BB
:100A40006093ED027093EE0230E028E180E090E0E8
:100A5000A0E8B0E013C000000000000000004698CD
:100A6000B695A795979587952150C1F04091EB02D7
:100A70005091EC026091ED027091EE0248235923EF
:100A80006A237B23469A452B462B472B21F7469812
:100A9000B695A79597958795215041F73F5F3032DE
:100AA00081F040815181628173814093EB025093C8
:100AB000EC026093ED027093EE0230FFC6CF3396E6
:100AC000C4CF0895FC0140815181628173814093BC
:100AD000E7025093E8026093E9027093EA0230E083
:100AE00028E180E090E0A0E8B0E013C00000000042
:100AF000000000002D98B695A795979587952150F1
:100B0000C1F04091E7025091E8026091E9027091D2
:100B1000EA02482359236A237B232D9A452B462B2F
:100B2000472B21F72D98B695A79597958795215036
:100B300041F73F5F303281F04081518162817381A2
:100B40004093E7025093E8026093E9027093EA024F
:100B500030FFC6CF3396C4CF0895FC014081518148
:100B6000628173814093E3025093E4026093E50253
:100B70007093E60230E028E180E090E0A0E8B0E089
:100B800013C000000000000000002C98B695A79547
:100B9000979587952150C1F04091E3025091E4026E
:100BA0006091E5027091E602482359236A237B2372
:100BB0002C9A452B462B472B21F72C98B695A795B9
:100BC00097958795215041F73F5F303281F0408102
:100BD0005181628173814093E3025093E4026093F8
:100BE000E5027093E60230FFC6CF3396C4CF089576
:100BF0000F931F93CF93DF93CDB7DEB7E0970FB678
:100C0000F894DEBF0FBECDBF80E38E010F5F1F4F94
:100C1000F801982F11929A95E9F789838F83888B31
:100C20008E8B898F8F8F88A78EA73E9A84B180671D
:100C300084B9F894C801B0DEC801F9DEC80142DF0A
:100C4000C8018BDF7894E0960FB6F894DEBF0FBE34
:100C5000CDBFDF91CF911F910F910895CF93DF9377
:100C6000EC013E9A84B1806784B9F894CE0194DE99
:100C7000CE01C096DCDECE01805A9F4F23DFCE012D
:100C800080579F4F6ADF7894DF91CF910895579AEC
:100C9000569A3F98479A5F9A5E9A80E5E4E4F3E0BB
:100CA000DF011D928A95E9F785B5846085BD85B51C
:100CB0008D7F85BD85B58E7F85BD80ED86BDEEE6D9
:100CC000F0E0808181608083789410921303109209
:100CD000140310921503109216031092170310922A
:100CE00018031092190310921A0310920B0310921A
:100CF0000C0310920D0310920E0310920F0310922A
:100D00001003109211031092120310920303109219
:100D10000403109205031092060310920703109229
:100D200008031092090310920A031092FB0210921A
:100D3000FC021092FD021092FE021092FF0210922D
:100D40000003109201031092020308951F920F9264
:100D50000FB60F9211247F928F929F92AF92BF9203
:100D6000CF92DF92EF92FF920F931F932F933F93B7
:100D70004F935F936F937F938F939F93AF93BF93A3
:100D8000CF93DF93EF93FF9380ED86BD5E9A5E98DD
:100D900010E421E030E040E050E060E070E080E00E
:100DA00090E0E0E0C12CD12CD0E0C0E0B0E0A0E0C9
:100DB000F0E016C0722E832E942EA52EB62EE72EAE
:100DC000F82E092FE729C828D928DA29CB29BE29E6
:100DD000AF29F02B01E00E941D1A5F9A115061F0BB
:100DE0005F98379BE7CF712C812C912CA12CB12CD3
:100DF000E12CF12C00E0E6CFE0901B03F12C870101
:100E0000000F111F000F111F000F111F0C5B1C4F53
:100E1000E0957C2D70956D2D60955D2F50954C2F34
:100E200040953B2F30952A2F20959F2F9095D801E4
:100E3000EC9311967C93119712966C9312971396DC
:100E40005C93139714964C93149715963C931597AF
:100E500016962C93169717969C93C70101966AE0F5
:100E600070E00E94F51980931B038091F702909126
:100E7000F802A091F902B091FA020196A11DB11DEC
:100E80008093F7029093F802A093F902B093FA02CC
:100E9000FF91EF91DF91CF91BF91AF919F918F9192
:100EA0007F916F915F914F913F912F911F910F9182
:100EB000FF90EF90DF90CF90BF90AF909F908F907A
:100EC0007F900F900FBE0F901F901895EF92FF929A
:100ED0000F931F93CF93DF93E4E4F3E05FEF4FEFC3
:100EE0003FEF2FEF7FEF6FEF9FEF8FEFE080F1800D
:100EF00002811381D481C581B681A78138965E2194
:100F00004F21302321237D236C239B238A23A3E0BD
:100F1000E439FA0759F750931303409314033093BD
:100F2000150320931603709317036093180390938F
:100F3000190380931A03652F742F832F922FDF914B
:100F4000CF911F910F91FF90EF9008958F929F92F4
:100F5000AF92BF92CF92DF92EF92FF920F931F93C7
:100F6000CF93DF9370910B0360910C0350910D03AD
:100F700040910E0330910F032091100390911103C3
:100F8000809112030091130310911403D091150363
:100F9000C0911603B0911703A0911803F0911903A3
:100FA000E0911A03872E8094962E9094A52EA094FB
:100FB000B42EB094C32EC094D22ED094E92EE094D7
:100FC000F82EF09480228092FB0291229092FC02F3
:100FD000AD22A092FD02BC22B092FE02CB22C092B2
:100FE000FF02DA22D0920003EF22E0920103FE22F8
:100FF000F0920203802E8094912E9094AD2EA094B6
:10100000BC2EB094CB2EC094DA2ED094EF2EE09468
:10101000FE2EF094782170930303692160930403FA
:101020005A21509305034B21409306033C213093F2
:1010300007032D21209308039E21909309038F21FC
:1010400080930A0300930B0310930C03D0930D03BA
:10105000C0930E03B0930F03A0931003F0931103FA
:10106000E0931203DF91CF911F910F91FF90EF90CA
:10107000DF90CF90BF90AF909F908F90089582E0C7
:1010800091E09093D5038093D40380E4E4E9F3E006
:10109000DF011D928A95E9F70895CF93DF9300D081
:1010A00000D0CDB7DEB741111CC090E828E02983FD
:1010B0008F70892B8A836F776B83809100018F7784
:1010C0008C83BE016F5F7F4F8091D4039091D503D5
:1010D0000E9491190F900F900F900F90DF91CF9178
:1010E000089590E929E0E3CFCF93DF9300D000D0BB
:1010F000CDB7DEB79BE099838F70806B8A836F7763
:101100006B834F774C83BE016F5F7F4F8091D40319
:101110009091D5030E9491190F900F900F900F900E
:10112000DF91CF910895CF93DF9300D000D0CDB75A
:10113000DEB761111EC020E838E0909101013983CB
:101140009F70922B9A838F778B83809100018F778A
:101150008C83BE016F5F7F4F8091D4039091D50344
:101160000E9491190F900F900F900F90DF91CF91E7
:10117000089520E939E0E1CFCF92DF92EF92FF921C
:101180000F931F93CF93DF9300D000D0CDB7DEB77E
:101190008B01843008F44FC0F82E9E012F5F3F4F23
:1011A000690184E0E82EE982F80180818A838181E7
:1011B0008B830D5F1F4F329680818C83B6018091A7
:1011C000D4039091D5030E949119FDEFFF0E23E007
:1011D0002F1548F390E085E08983F80180818A83A8
:1011E0001B821C82F2E0FF16B9F0F3E0FF16D1F08B
:1011F000B6018091D4039091D5030E9491190F906C
:101200000F900F900F90DF91CF911F910F91FF9052
:10121000EF90DF90CF90089586E08983F801818177
:101220008B83E6CF992379F0F982F80181818B8352
:1012300082818C83DDCF882311F3F82E91E0FE01AB
:1012400031966F01C8CF87E08983EFCF8C5D089519
:1012500080911F03882341F080911E03833079F031
:101260008F5F80931E0308951092410310924003F4
:1012700081E080931F0380911E03833089F781E012
:1012800080931E03809140039091410301969093B7
:101290004103809340030895811103C010921F03FE
:1012A000089581E080931F03089580910E0190912D
:1012B0000F019C01322F22273295330F307E822777
:1012C00093279C01232F33272695822793279C0160
:1012D0003695322F2227379527958227932790938B
:1012E0000F0180930E0108958091390390913A0384
:1012F000892B31F48CE190E090933A038093390389
:101300001092100108959C014330B8F491E0940FBD
:1013100050E0460F511DFA01EE0FFF1F4E0F5F1FE9
:10132000F901E40FF51F80E020E32083118212828F
:101330008F5F39968913F9CF0895483038F494E0D7
:10134000433031F3440F440F4950E2CF4B30A0F704
:101350009BE0941BF7CFCF93DF93409110014F3068
:10136000E0F42091390330913A03232B59F42CE116
:1013700030E030933A03209339034F5F40931001DC
:101380004F3059F0EC0160E0BEDF40911001445055
:1013900060E2CE01DF91CF91B6CFDF91CF9108957A
:1013A000E4EAF5E0DC0182818C93808111968C93D4
:1013B0001197818112968C9312973396139686E03B
:1013C000E436F80781F7089586ED93E0E9DF809130
:1013D000420390914303803D974058F0109243039D
:1013E0001092420380913F038F5F80933F038C33C1
:1013F00028F5809135038823F1F090913603891701
:1014000051F1891718F12091FB023091FC024091B3
:10141000FD025091FE026091FF02709100038091E5
:10142000010390910203A0E00E94361A21F010926D
:101430003F031092360386ED93E08DCF8091360303
:101440008F5F8093360310923F03D3CF86ED93E0F6
:101450000E944312D8CFF1D7909136039F5F9093AB
:10146000360380913503CDCFFC018081811113C0FB
:10147000818181112CC08281882309F44EC0803380
:1014800049F0813808F46AC080E390E020E02083CE
:10149000918382830895918191110BC09281911162
:1014A00021C08033B9F3813808F450C080E020E3D4
:1014B000EECF228121111EC08917B8F5903251F369
:1014C00080E0913808F45BC090E229E1E0CF92819E
:1014D00091111BC08033F1F28138E0F180E090E39C
:1014E00020E0D5CF8432B1F2813860F182E190E022
:1014F00024E2CDCF9532A8F4203261F2813808F48D
:1015000041C080E297E029E1C2CF8E3119F28138E3
:1015100048F18EE19EE120E0BACF80E090E020E04B
:10152000B6CF88E198E128E1B2CF282F2695291778
:10153000E8F0883209F4AECF813860F180E09CE0B9
:1015400028E2A5CF89E090E022E1A1CF80E090E001
:1015500028E19DCF80E098E120E099CF88E190E0FC
:1015600020E095CF8FE09FE020E091CF803209F41A
:1015700091CF813858F080E099E120E288CF90E166
:101580002CE085CF81E193E02DE081CF80E09CE0ED
:1015900020E17DCF80E096E024E179CF65CF292F4F
:1015A00033272230310531F12330310599F02130D4
:1015B000310541F080E090E020E030E0FA01318335
:1015C0002083089582E190E02FEA31E0FA0131832F
:1015D00020830895992781309105D1F098F08230C9
:1015E0009105E1F0039731F7E8EDF0E0849190E0A8
:1015F0009F01E4CF85E690E02AE431E0FA013183EF
:1016000020830895E6E4F1E0849190E09F01D6CF35
:10161000EAE1F1E0849190E09F01D0CFECEEF0E0C0
:10162000849190E09F01CACF0E94B116F89480E0A7
:10163000EFEFF9EF3197F1F700C000008F5F8038CE
:10164000B9F78AEC9CEAA2E4BCED809388069093FB
:101650008906A0938A06B0938B069CE088E10FB6BA
:10166000F894A895809360000FBE90936000FFCF20
:10167000CF93DF93CDB7DEB761970FB6F894DEBF97
:101680000FBECDBF9C0190913303963009F443C047
:10169000953009F447C0943029F1933049F06196B0
:1016A0000FB6F894DEBF0FBECDBFDF91CF91089586
:1016B00022303105A0F380919604863081F7809125
:1016C0009704813061F781E1EFE4F1E0DE011196EA
:1016D00001900D928A95E1F7BE016F5F7F4F81E126
:1016E0004BDDDDCF21153105D1F2E09196048FEF6E
:1016F0008E0F8830A0F6F0E0EE0FFF1FEF5DFC4F7D
:101700000190F081E02D309751F267E974E0C90152
:1017100001970995C4CFB9016B567B4F86E994E0D8
:1017200003D5BDCFB9016B567B4F86E994E0F4D564
:10173000B6CF9FEF980F983040F4E82FF0E0EE0F0F
:10174000FF1FEF5DFC4F718360830895209122039A
:10175000211114C021E02093220326E934E03093C4
:10176000210320932003DC0111962C911197203F37
:1017700009F45BC082E08093330308952091330322
:101780002130C9F12230B1F1E0912003F091210321
:101790009F012D5F3F4F409111015091120124177D
:1017A000350740F72250310930932103209320035D
:1017B000DC0111962C9111972083E0912003F09188
:1017C00021039F012F5F3F4F30932103209320037C
:1017D00012962C9112972083E0912003F09121031F
:1017E0009F012F5F3F4F30932103209320031396D7
:1017F0008C9180830895DC0111962C9111972937E3
:1018000009F0B8CFE0912003F09121039F012E5FF2
:101810003F4F40911101509112012417350708F0F4
:10182000A9CF24E020933303CCCF12962C911297AA
:101830002E37E1F1211106C0FC018381813009F0CE
:1018400099CF99CF2F36C1F4209111013091120117
:101850002759344009F008F48DCF25E02093330355
:1018600027E934E03093210320932003DC01139611
:101870008C918093960408952F3509F07BCF2091A9
:101880001101309112012759344009F008F472CF48
:1018900026E02093330327E934E03093210320939B
:1018A0002003FC01838180939604089513968C9104
:1018B0008F3709F05FCF83E0809333030895209141
:1018C00022032223C9F010922203209133032130F6
:1018D000E1F0223071F0E0912003F09121039F01AB
:1018E0002D5F3F4F40911101509112012417350790
:1018F00020F1109233030895FC012181203FC9F7A4
:1019000082818E36B1F708D4F4CFDC0111962C9188
:101910001197293771F7E0912003F09121039F017E
:101920002E5F3F4F4091110150911201241735074E
:1019300000F724E0209333030FC022503109309385
:10194000210320932003DC0111962C911197208311
:10195000E0912003F09121039F012F5F3F4F3093CF
:1019600021032093200312962C9112972083E0915B
:101970002003F09121039F012F5F3F4F30932103FC
:101980002093200313968C91808380912003909163
:101990002103865994406CDEACCF9C0190912203C8
:1019A000992399F01092220380913303823069F0D9
:1019B000A0912003B0912103CD0102964091110125
:1019C000509112018417950718F01092330308956F
:1019D000F9010197909321038093200381818C93D7
:1019E000A0912003B0912103CD0101969093210392
:1019F0008093200382818C93809120039091210316
:101A00008659944035DE1092330308959C019091DD
:101A10002203992399F0109222038091330382309C
:101A200069F0E0912003F0912103CF0101964091EC
:101A30001101509112018417950718F01092330389
:101A40000895D901909321038093200311968C91DE
:101A5000808380912003909121038659944008DE71
:101A60001092330308952F923F924F925F926F929C
:101A70007F928F929F92AF92BF92CF92DF92EF921E
:101A8000FF920F931F93CF93DF93CDB7DEB7A3974A
:101A90000FB6F894DEBF0FBECDBF8330910508F4BA
:101AA0008EC0FB01208141802111A2C086309105AA
:101AB00008F485C0442009F482C02281222309F45D
:101AC0007EC0A480B12C05978A159B0508F477C0C9
:101AD000213108F074C0822F90E001979C01359568
:101AE00027953595279535952795877098E1899F96
:101AF000802D11240FB6F894A895909160009861FC
:101B000090936000109260000FBE93E0A916B1049C
:101B10000CF44BC08B010B5F1F4F90EC929F300178
:101B2000939F700C1124E2E04E1609F40AC12FE6CF
:101B300030E0620E731E680E711C812C912C512CAA
:101B400040E050E07801E80CF91C94012D5F3F4F14
:101B5000200F311FF7019081990F91932E173F07A6
:101B6000D1F7F2E0C801840F951F4F1609F4E3C0C6
:101B700015DD860C971C640123E0C20ED11CF70111
:101B800061917F01C4010E945003FFEF8F1A9F0AE9
:101B9000C814D904A1F723E0520E452D50E04A01A4
:101BA000CA0102968A159B056CF29FE088E10FB688
:101BB000F894A895809360000FBE90936000A39660
:101BC0000FB6F894DEBF0FBECDBFDF91CF911F914E
:101BD0000F91FF90EF90DF90CF90BF90AF909F90CC
:101BE0008F907F906F905F904F903F902F900895CF
:101BF000213029F781E0481609F49FC092E049128C
:101C0000DECFEFEE8E2E9924939455245394E12C3D
:101C1000F12C40E8642E7724739450EF252E67EF63
:101C2000C62E9301E9E16E16710410F028E130E050
:101C3000F8E16F1A710829821A8281E08B8399E793
:101C40009C83E4E0ED831E824F825886F0E1F987A1
:101C5000322E2A87CB86CC86CD86CE86CF86C88A82
:101C6000C98ACA8ACB8ACC8ACD8ACE8ACF8AC88EC4
:101C7000C98ECA8ECB8ECC8ECD8ECE8ECF8EC8A284
:101C8000C9A2CAA2CBA20FB6F894A8958091600011
:101C9000886180936000109260000FBE59018AE055
:101CA000A80EB11C9AE0A916B10451F13AE0D32E66
:101CB000C7010AE010E0EFEFEE1AFE0A880D991D49
:101CC0000E945B03E1E0F0E0EC0FFD1FE00FF11F6D
:101CD0009FE7899F90011124ABEABAEA0E940E1A8D
:101CE00096958795929582958F7089279F70892701
:101CF0008083D394C7010D2D10E00A151B05D8F27F
:101D0000E8E1FFE00FB6F894A895E09360000FBEFD
:101D1000F0936000BE016F5F7F4F8BE0830D2CDA84
:101D20008091D4039091D5030E94B419539421E17A
:101D3000521277CF44CF98DB1CCF7FE6872E912CB1
:101D400064CF2FEE31E0F5CECF93DF93EC0141501D
:101D5000510989F0FB0120E030E09081983128F4AE
:101D60006181DE01A90FB11D6C932E5F3F4F32964A
:101D70002417350790F3DF91CF9108951F93CF93E8
:101D8000DF93CDB7DEB7AD970FB6F894DEBF0FBEC9
:101D9000CDBF80EF89831A8211E01B8389E78C8392
:101DA00082E08D831E831F8282E090E00E945B03AD
:101DB0008F5F8887198783E090E00E945B038A87A2
:101DC00083E08B8785E090E00E945B038C8787E04F
:101DD0008D8789E090E00E945B038E8788E08F8783
:101DE0008AE090E00E945B03888B8AE0898B8EE01A
:101DF00090E00E945B038A8B8BE08B8B8DE090E000
:101E00000E945B0383708C8B8CE08D8B8DE090E067
:101E10000E945B0382958F708E8B8DE08F8B8CE0A0
:101E200090E00E945B038150888F8EE0898F8FE065
:101E300090E00E945B038A8F8FE08B8F80E190E0BF
:101E40000E945B038C8F80E18D8F81E190E00E9486
:101E50005B038E8F81E18F8F82E190E00E945B03B4
:101E600088A382E189A383E190E00E945B038AA3B7
:101E700083E18BA384E190E00E945B038CA384E167
:101E80008DA385E190E00E945B038EA385E18FA383
:101E900086E190E00E945B0388A786E189A787E13D
:101EA00090E00E945B038AA787E18BA788E190E01E
:101EB0000E945B038CA787EF8DA7BE016F5F7F4FEA
:101EC0008DE25AD9AD960FB6F894DEBF0FBECDBFE6
:101ED000DF91CF911F910895CF93DF93CDB7DEB7F8
:101EE00068970FB6F894DEBF0FBECDBF0FB6F8945B
:101EF000A8952091600028612093600010926000F6
:101F00000FBEFE01319628E1DF011D922A95E9F707
:101F1000AC01CF0119DF6981615082E090E00E943D
:101F200050036A8183E090E00E9450036C8185E059
:101F300090E00E945003688589E090E00E94500381
:101F400069858AE090E00E9450036B858EE090E006
:101F50000E9450038D85B0E18B9FC00111246C85D8
:101F6000682B8DE090E00E9450036E856F5F8CE0DF
:101F700090E00E9450036F858FE090E00E94500334
:101F8000698981E190E00E9450036A8982E190E0D2
:101F90000E9450036B8983E190E00E9450036D8999
:101FA00085E190E00E9450036E8986E190E00E94F6
:101FB00050036F8987E190E00E945003688D88E1AB
:101FC00090E00E94500390D9D9DE0E9418049FE04F
:101FD00088E10FB6F894A895809360000FBE9093A7
:101FE000600068960FB6F894DEBF0FBECDBFDF91DC
:101FF000CF910895892B19F0FB01808181110895FB
:102000000FB6F894A8958091600088618093600075
:10201000109260000FBEB2DE9FE088E10FB6F89428
:10202000A895809360000FBE909360000895892B5F
:1020300009F453C0FB018081813009F44FC0823024
:1020400009F008950FB6F894A89580916000886112
:1020500080936000109260000FBE0E9462034FEFF9
:102060005FEF6FEF70E08FEF9FEF0E94CB042FEFD9
:1020700081EE94E0215080409040E1F700C00000E4
:102080004FEF5FEF6FEF70E080E090E00E94CB04D5
:102090002FEF81EE94E0215080409040E1F700C0A6
:1020A00000004FEF5FEF6FEF70E08FEF9FEF0E9448
:1020B000CB042FEF81EE94E0215080409040E1F777
:1020C00000C000005BDE9FE088E10FB6F894A895A1
:1020D000809360000FBE9093600008950FB6F8944F
:1020E000A8958091600088618093600010926000E4
:1020F0000FBE0E94F80598CA6CE67FE081E019DB0C
:102100006AEF7FE082E015DB67E170E183E011DBDD
:1021100063E37DE084E00DCB80ECE4EAF5E0DF01F1
:102120001D928A95E9F70895EF92FF920F931F93FE
:10213000CF93DF93EC018617970708F0ADC0288195
:1021400039814A81822F807490E0FC01F595E795F2
:10215000F595E795F595E795F595E795932F9074A7
:10216000892F90E095958795959587959595879575
:1021700095958795959587958E2B46FB992790F990
:10218000892BDE0109F4B5C01396C82F2F733F7356
:102190004F73222309F4BEC02E5F332309F4B8C065
:1021A0003E5F442309F4B2C04E5FC150D0E0219697
:1021B000CA0FDB1F45C0E82FEF73F0E08F01000F5F
:1021C000111FE00FF11FEC55FA4F2083318342833A
:1021D00086FF33C0982F9095E92FEF73F0E08F01C1
:1021E000000F111FE00FF11FEC55FA4F20833183D0
:1021F000428385FF22C0E82FEC71592F5370E52BE5
:102200000E2E000CFF0B8F01000F111FE00FF11FAE
:10221000EC55FA4F20833183428383729C71892B62
:10222000082E000C990BFC01EE0FFF1FE80FF91FA1
:10223000EC55FA4F208331834283CA17DB0741F103
:102240008D91982F9077903609F0B5CF83FF2BC0F2
:1022500082FD4DC053E0582380E090E0FC01EE0F7A
:10226000FF1FEE0FFF1FE52B0E2E000CFF0B8F0143
:10227000000F111FE00FF11FEC55FA4F208331833F
:10228000428301968830910549F7CA17DB07C1F6EA
:10229000C617D70708F453CFDF91CF911F910F9145
:1022A000FF90EF9008958770880F880F90E0582F67
:1022B000592B052F10E07801EE0CFF1C0E0D1F1D91
:1022C0000C551A4FF801208331834283E52FE062D9
:1022D000F0E08F01000F111FE00FF11FEC55FA4FD6
:1022E0002083318342839F5F943009F7A6CF53E266
:1022F000B2CF1496CB812F733F734F73C11149CF67
:10230000ED01C617D70708F41ACFC6CF40E04DCF6E
:1023100030E047CF20E041CFCF93DF93DC0103963D
:102320008617970780F513968C9113978F731296E3
:102330009C9112979F7311964C9111974F732C910A
:102340002F7330E041114E5FF901EE0FFF1FEF01D7
:10235000C20FD31FCC55DA4F488391119E5FEF0116
:10236000C20FD31FCC55DA4F998381118E5F2E0F88
:102370003F1FF901EC55FA4F82831496CD01039665
:102380008617970780F2DF91CF91089590E066233A
:10239000F1F06E5FFC01EE0FFF1FDF01A80FB91F08
:1023A000AC55BA4F6C934423A1F04E5FDF01A80FE8
:1023B000B91FAC55BA4F11964C93222361F02E5F92
:1023C0008E0F9F1FFC01EC55FA4F2283089560E0A9
:1023D000E1CF40E0EBCF20E08E0F9F1FFC01EC55DA
:1023E000FA4F228308956F7770E0FB01EE0FFF1F15
:1023F000E60FF71FE05AFE4F22813181408190E0C5
:1024000041114E5FFC01EE0FFF1FDF01A80FB91F46
:10241000AC55BA4F4C9331113E5FDF01A80FB91F85
:10242000AC55BA4F11963C9321112E5F8E0F9F1F12
:10243000FC01EC55FA4F22830895E8E6F6E081812D
:10244000877F8183EEE6F6E08181877F8183E4E701
:10245000F6E08181877F818382E080937A06809194
:10246000F7029091F802A091F902B091FA02019757
:10247000A109B1098093760690937706A093780618
:10248000B093790608956F927F928F929F92AF9248
:10249000BF92CF92DF92EF92FF920F931F93CF9351
:1024A000DF93EC018090F7029090F802A090F9027F
:1024B000B090FA028091760690917706A091780606
:1024C000B091790647E0B695A795979587954A9577
:1024D000D1F7B501A401E7E0769567955795479543
:1024E000EA95D1F784179507A607B70709F48AC0BC
:1024F00080917A068F5F833008F0EDC180937A0671
:1025000090E08C01000F111F080F191F000F111F01
:10251000F801EC59F94FD501C4018078808391838B
:10252000A283B3830859194FF801818188608183A0
:102530000E9455098770D8019C91907F892B8C93BC
:1025400000917A0610E00E945509F801EE0FFF1F76
:10255000E00FF11FEE0FFF1FE859F94F8770982F1A
:102560009295907F80818F70892B8083E0917A068D
:102570000E2F10E004C081FD45C082FD43C00E94C3
:102580005509F801EE0FFF1FE00FF11FEE0FFF1FBF
:10259000E859F94F918180FB90F9918300917A0677
:1025A00010E00E945509F801EE0FFF1FE00FF11F28
:1025B000EE0FFF1FE859F94F918180FB91F991834C
:1025C00000917A0610E00E945509F801EE0FFF1FF6
:1025D000E00FF11FEE0FFF1FE859F94F918180FBCB
:1025E00092F99183E0917A060E2F10E0F801EE0F38
:1025F000FF1FE00FF11FEE0FFF1FE759F94F80811A
:1026000080FFB9CF8092760690927706A0927806E6
:10261000B092790680ECDE011D928A95E9F764E6B6
:1026200076E0C12CD12C54013EE7932EF601EE0F3B
:10263000FF1FEC0DFD1DEE0FFF1FDF01A759B94F66
:102640008C9183FF00C140E050E020E03D01E8595B
:10265000F94F98C0803491050CF410C18F37910563
:102660000CF00AC1392D381BD3011C9111FFD5C0C4
:10267000192D181BD3010C9102FF20C1092D081B35
:102680009081892F82958F709F70F92EF20EB7E09E
:10269000BF1518F1883008F047C0982F9470990F33
:1026A000990F990F8370892BFF0CFF0CF82A8F2D3F
:1026B000FF0C990B7C01EE0CFF1C8E0D9F1D8C0FE7
:1026C0009D1FDC013C9311961C93119712960C935D
:1026D0009081892F82958F709F70F92EF21AA7E052
:1026E000AF1510F1883000F5982F9470990F990F5D
:1026F000990FFF0CFF0CF92A8370F82A8F2DFF0C1D
:10270000990B7C01EE0CFF1C8E0D9F1D8C0F9D1FE5
:10271000DC013C9311961C93119712960C939081B7
:10272000892F82958F709F70983020F5F82EF20EC9
:10273000B7E0BF1508F04AC0821B8830D8F4990F63
:10274000990FB82FB3709B2B8470880F880F880F58
:10275000892B082E000C990B7C01EE0CFF1C8E0DB2
:102760009F1D8C0F9D1FDC013C9311961C931197AC
:1027700012960C932F5F4851510940348FEF580740
:1027800009F461C0DB018D919C91D501A81BB90BA7
:10279000CD01840F951F97FDEDCFD3013C9130FD06
:1027A00059CF803491050CF06BC03FE3381BD30147
:1027B0001C9111FF32C0803491050CF070C01FE3F2
:1027C000D3010C9102FF32C00FE35ACF990F990F3A
:1027D0008F2D8370982B8F2D8470F82EFF0CFF0C9B
:1027E000FF0CF92A8F2DFF0C990B7C01EE0CFF1CBE
:1027F0008E0D9F1D8C0F9D1FDC013C9311961C9329
:10280000119712960C939081892F82958F70821B5D
:102810009F70983008F491CFADCF80349105ACF51E
:102820001FE3181BD3010C9102FDCECF0FE3081B51
:10283000303809F025CF103809F022CF003809F4DC
:1028400099CF312F1DCFBFEFCB1ADB0A6A5F7F4FC5
:10285000E3E0CE16D10409F0E9CEDF91CF911F91CC
:102860000F91FF90EF90DF90CF90BF90AF909F902F
:102870008F907F906F90089530E899CF3FE397CF86
:102880008F379105CCF730E0EFCE8F3791055CF4B0
:10289000D3011C9112FD1BC010E000E0F1CE8F3778
:1028A00091050CF4E5CED3011C9112FF06C030381F
:1028B00009F460CF10E800E8E3CE10E88034910519
:1028C0000CF4B4CF8F37910524F000E8B1CF10E0BD
:1028D000D5CE00E0ADCF10927A0680E090E011CE28
:1028E000CF92DF92EF92FF920F931F93CF93DF93DC
:1028F0008C01EB016A01FDD181111EC0C114D1040C
:1029000039F0F60180819181C81BD90B080F191F7E
:10291000209789F0E12CF12C9091E80095FF15C0EB
:10292000F80181918F018093F1002197FFEFEF1A59
:10293000FF0A209789F780E0DF91CF911F910F91D7
:10294000FF90EF90DF90CF9008958091E8008E7710
:102950008093E800ACD4C114D10421F4CAD18823F7
:10296000D9F2EACFF60180819181E80EF91EF18259
:10297000E08285E0E1CFCF92DF92EF92FF920F935A
:102980001F93CF93DF938C01EB016A01B2D18111C8
:102990001EC0C114D10439F0F60180819181C81B99
:1029A000D90B080F191F209789F0E12CF12C909179
:1029B000E80095FF15C08091F100F80181938F0127
:1029C0002197FFEFEF1AFF0A209789F780E0DF9148
:1029D000CF911F910F91FF90EF90DF90CF900895CE
:1029E0008091E8008B778093E80061D4C114D10412
:1029F00021F47FD18823D9F2EACFF6018081918139
:102A0000E80EF91EF182E08285E0E1CF2091860692
:102A1000309187062617370750F06115710599F533
:102A20002091E8002E772093E80020E030E0FC01C0
:102A300040E00EC0853049F18091E80083FD27C059
:102A40008091E80082FD19C08091E80080FD21C0DE
:102A50002115310511F4442381F080917F06811105
:102A6000E9CF82E0089580917F068823D1F38530F5
:102A700061F08091E80083FD0AC08091E80082FF48
:102A8000F2CF80E008959B01D2CF83E0089581E0EA
:102A900008954091F3008091F20090E0942B21156D
:102AA000310519F08034910570F041E080349105D2
:102AB00009F040E08091E8008E778093E800C8CF6D
:102AC0008034910591F341914093F10021503109F7
:102AD000019621153105A1F7E8CF209186063091A6
:102AE00087062617370750F06115710599F5209173
:102AF000E8002E772093E80020E030E0FC0140E081
:102B00000EC0853049F18091E80083FD27C0809197
:102B1000E80082FD19C08091E80080FD21C02115E8
:102B2000310511F4442381F080917F068111E9CFB2
:102B300082E0089580917F068823D1F3853061F08B
:102B40008091E80083FD0AC08091E80082FFF2CF07
:102B500080E008959B01D2CF83E0089581E008953D
:102B60004091F3008091F20090E0942B2115310503
:102B700019F08034910570F041E08034910509F03E
:102B800040E08091E8008E778093E800C8CF8034E1
:102B9000910591F344914093F10031962150310910
:102BA00001962115310599F7E7CF873078F58093A5
:102BB000E900982F242F762F50E00AC09093E90067
:102BC000891759F17091EC002091ED005091F000BF
:102BD00021FF19C03091EB003E7F3093EB00309124
:102BE000ED003D7F3093ED003091EB00316030938C
:102BF000EB007093EC002093ED005093F0002091D7
:102C0000EE0027FF08C09F5F9730C1F68F7080935A
:102C1000E90081E0089580E00895242F762F50E0A8
:102C2000D7CF0F931F93CF93DF93662379F1062FAE
:102C3000EC0110E05881552329F19C81E981FA814A
:102C40006B81852F8F70873068F5923028F146E0D0
:102C5000E930F10528F128E030E090E09F5F220F95
:102C6000331F2E173F07D0F39295907F492B90E4A6
:102C7000699FB0011124551F5527551F652B95DFFE
:102C8000882381F01F5F25960113D4CF81E0DF9167
:102C9000CF911F910F91089542E0E930F105D8F6E8
:102CA00090E0E4CF80E0DF91CF911F910F910895E4
:102CB0008091800687FF05C012C080917F0688231F
:102CC00049F08091E80080FFF8CF8091E8008E778E
:102CD0008093E800089580917F068823D9F380913E
:102CE000E80082FFF8CF8091E8008B778093E800BE
:102CF00008954091E4005091E50025E69091EC00A4
:102D0000892F817090FF1EC08091E80080FD27C050
:102D100080917F068823D9F08530D9F08091EB002F
:102D200085FD19C08091E4009091E500481759078E
:102D300029F3215091F0AC019091EC00892F817022
:102D400090FDE2CF9091E80092FFE2CF089582E0FB
:102D5000089583E0089581E0089584E0089580E077
:102D6000089567D06ED0E0EEF0E0808181608083CE
:102D7000E8EDF0E080818F77808319BCA7EDB0E0AB
:102D80008C918E7F8C9380818F7E808310927E06C3
:102D900008950F931F93CF93DF934BD052D0C8ED7C
:102DA000D0E088818F778883888180688883888154
:102DB0008F7D888319BC10927F0610927B0610923B
:102DC0007D0610927C0600EE10E0F80180818B7F7A
:102DD000808388818160888342E360E080E0E5DE73
:102DE000E1EEF0E080818E7F8083E2EEF0E0808192
:102DF00081608083808188608083F80180818E7FFC
:102E00008083888180618883DF91CF911F910F91AA
:102E10000895E8EDF0E080818F7E8083E7EDF0E0BB
:102E200080818160808384E082BF81E080937E0620
:102E3000B0CFE8EDF0E080818E7F80831092E200D9
:102E400008951092DA001092E10008951F920F92F7
:102E50000FB60F9211242F933F934F935F936F936D
:102E60007F938F939F93AF93BF93EF93FF93809143
:102E7000E10082FF04C08091E20082FD8CC080915D
:102E8000DA0080FF04C08091D80080FD6EC0809180
:102E9000E10080FF04C08091E20080FD83C080914A
:102EA000E10084FF2BC08091E20084FF27C080E115
:102EB00089BD82E189BD09B400FEFDCF8091D800B3
:102EC0008F7D8093D8008091E1008F7E8093E10018
:102ED0008091E2008F7E8093E2008091E200816029
:102EE0008093E20080917B06811171C08091E300A4
:102EF00087FD77C081E080937F06D8D18091E10083
:102F000083FF22C08091E20083FF1EC08091E10018
:102F1000877F8093E10082E080937F0610927B069A
:102F20008091E1008E7F8093E1008091E2008E7FAE
:102F30008093E2008091E20080618093E20042E3AE
:102F400060E080E032DEB2D1FF91EF91BF91AF91AE
:102F50009F918F917F916F915F914F913F912F91B1
:102F60000F900FBE0F901F9018958091DA008E7F02
:102F70008093DA008091D90080FF2DC080E189BD67
:102F800082E189BD09B400FEFDCF81E080937F0618
:102F90000E9418017CCF8091E1008B7F8093E1003B
:102FA00085D16DCF8091E2008E7F8093E200809189
:102FB000E20080618093E2008091D800806280937B
:102FC000D80019BC85E080937F0670D168CF84E07B
:102FD00080937F0692CF19BC10927F060E94190140
:102FE00056CF83E088CF1F93CF93DF93CDB7DEB763
:102FF000AA970FB6F894DEBF0FBECDBFE0E8F6E0AB
:1030000028E836E08091F10081932E173F07D1F731
:103010004DD18091E80083FF09C020918006309156
:103020008106832F90E08A309105C0F08091E800FE
:1030300083FF0AC08091E800877F8093E800809139
:10304000EB0080628093EB00AA960FB6F894DEBF87
:103050000FBECDBFDF91CF911F910895FC01EE59B6
:10306000FF4FD6C12111E2CF809182069091830655
:1030700099270297DCF68091E800877F8093E8002B
:103080008091820680937B0613DE80917B068111FE
:1030900005C18091E30087FD01C181E080937F0637
:1030A0000E941A01C3CF203809F0C0CF8091E800F8
:1030B000877F8093E80080917B068093F100809168
:1030C000E8008E778093E800F3DDB0CF20582230FF
:1030D00008F0ACCF80918206909183068C3D53E03E
:1030E000950709F4A7C0AE014F5F5F4F609184065A
:1030F0000E94CF0ABC01892B09F498CF9091E80077
:10310000977F9093E80089819A81E7DC8091E800BD
:103110008B778093E8008ACF211188CF10918206A7
:103120001F778091E3008078812B8093E30080916A
:10313000E800877F8093E800BBDD8091E80080FF96
:10314000FCCF8091E30080688093E300111170C090
:1031500082E080937F066ACF222309F455C0223093
:1031600009F064CF80918206811124C08091840689
:103170008F7009F45BCF8093E9009091EB0090FF92
:1031800019C0333009F48CC09091EB00906190939A
:10319000EB0021E030E0A90102C0440F551F8A95E1
:1031A000E2F74093EA001092EA008091EB00886019
:1031B0008093EB001092E9008091E800877F809374
:1031C000E80076DD33CF203859F1223809F02ECFD0
:1031D000809184068F708093E9008091EB0085FBDD
:1031E000882780F91092E9009091E800977F9093EA
:1031F000E8008093F1001092F1008091E8008E7752
:103200008093E80055DD12CF80918206813009F06D
:103210000DCF81E0333009F080E080937D06CACF86
:1032200080917C0690917D069923F1F28260DCCF3B
:1032300083E08FCF83E08A838AE289835FB7F89443
:10324000DE01139620E03EE041E207C090E0C79621
:103250008D939D932F5F243181F0E32FF0E0409315
:103260005700849120FF03C082958F703F5F8F705D
:103270008A3060F790E0C096EBCF5FBF8091E800A6
:10328000877F8093E8006AE270E0CE010196BEDBA2
:103290008091E8008B778093E800C8CE84E0FECE72
:1032A0008091EB0080628093EB0084CF0895CF93F0
:1032B00080917F06882391F0C091E900CF708091C2
:1032C000EC0080FD0DC080E0C82B1092E9008091D9
:1032D000E80083FD0DC0CF70C093E900CF91089541
:1032E00080E8C82B1092E9008091E80083FFF3CFBB
:1032F0007ADEF1CFCF93DF93EC011B8682E08C83E3
:10330000898761E0CE0101968CDC811104C080E0E8
:10331000DF91CF91089561E0CE010696DF91CF91C4
:1033200080CCAC0190917F06943011F082E008953A
:103330009B01FA0181818F708093E90040E050E0A9
:1033400064E070E0C901CCDA81110DC09091E80011
:10335000892F807295FD06C09091E8009E7790932A
:10336000E800089580E00895FC0190917F06943074
:1033700011F082E0089581818F708093E90020919F
:10338000F3008091F20090E0922B892B11F480E001
:1033900008958091E8008E778093E800AACCFC0124
:1033A00090917F06943011F080E0089596819F708F
:1033B0009093E9008091E80082FFF6CF8091E800C9
:1033C00085FFF2CFCB0140E050E064E070E0D3DA5B
:1033D0008091E80085FD07C08091E8008B7780939D
:1033E000E80081E0089581E0089597FB072E16F428
:1033F000009406D077FD08D045D007FC05D03EF4F8
:10340000909581959F4F0895709561957F4F089590
:10341000EE0FFF1F0590F491E02D0994A29FB001DB
:10342000B39FC001A39F700D811D1124911DB29FF8
:10343000700D811D1124911D08950F93083090F097
:10344000982F872F762F652F542F432F322F222727
:103450000850F4CF220F331F441F551F661F771FDC
:10346000881F991F0A95B2F70F9108950024A7FDB0
:1034700000942A1730054005500560057005800549
:1034800090050895AA1BBB1B51E107C0AA1FBB1FD3
:10349000A617B70710F0A61BB70B881F991F5A95E0
:1034A000A9F780959095BC01CD010895F894FFCFC0
:1034B0004A0E018240000001014000000100938D8E
:1034C0000FA405000000300000180000280C0014B4
:1034D0000600201900100C001920000C100000300C
:1034E00000001800001E1E000F0F00003000001822
:1034F0001907200D0311240012120009181818F0E2
:103500007E7F06020001790600010030240320F7C7
:103510000000001010102020203F3F3F3F0F0F3FC2
:1035200000002000001000003F2E1A3F0F0020086E
:10353000001004003F2B0B3F3F0020200010100024
:10354000213F0C143F000A2000051000123F12001A
:103550003F00002000001000123F17003F0600202F
:1035600003001001123F16003F1500200B0010064B
:10357000123F2D003F2500201200100912303F009D
:10358000293F001520000B1012213F00153F000BB2
:10359000200006100B093F00003F00002000001033
:1035A0001A0D3E0B003F0600200300103F0F3F3F67
:1035B000003F2000201000103F101B3F001420008F
:1035C0000A1000053F0300250D001D1400080D0121
:1035D000000E0000120600051B00003F001113043E
:1035E00000321F1F1F0707073F00002E3F0B2B3A1B
:1035F00001183F02032200003F1700293F000A3F45
:1036000006003F16003F2B061E0A04003F0C002157
:1036100037011C3F05003F000E3F09153F1B0D3FC2
:103620003216223F0C14301A143934073F3F00166B
:103630003F11002D2900233F002016010E0A000033
:10364000120303130805050A050716190E062000C4
:103650000036100A3512043F2F0927370B192C03A7
:1036600005050B36341A1F3A2226253F23193F0F32
:103670000F0F1C1C1C373F3F2700000D00000633B6
:10368000000110002D2B000F0C002C14001205005F
:00000001FF
